{
  "address": "0x4DA4ad4A0E3805Dc596f96EAbfC2F8cDE06B39C7",
  "abi": [
    {
      "inputs": [
        {
          "internalType": "address",
          "name": "token",
          "type": "address"
        }
      ],
      "stateMutability": "nonpayable",
      "type": "constructor"
    },
    {
      "anonymous": false,
      "inputs": [
        {
          "indexed": false,
          "internalType": "address",
          "name": "from",
          "type": "address"
        },
        {
          "indexed": false,
          "internalType": "address",
          "name": "to",
          "type": "address"
        },
        {
          "indexed": false,
          "internalType": "uint256",
          "name": "amount",
          "type": "uint256"
        },
        {
          "indexed": false,
          "internalType": "uint256",
          "name": "nonce",
          "type": "uint256"
        },
        {
          "indexed": false,
          "internalType": "uint256",
          "name": "date",
          "type": "uint256"
        },
        {
          "indexed": true,
          "internalType": "enum BaseBridge.Action",
          "name": "action",
          "type": "uint8"
        }
      ],
      "name": "Transfer",
      "type": "event"
    },
    {
      "inputs": [
        {
          "internalType": "address",
          "name": "to",
          "type": "address"
        },
        {
          "internalType": "uint256",
          "name": "amount",
          "type": "uint256"
        }
      ],
      "name": "burn",
      "outputs": [],
      "stateMutability": "nonpayable",
      "type": "function"
    },
    {
      "inputs": [
        {
          "internalType": "address",
          "name": "to",
          "type": "address"
        },
        {
          "internalType": "uint256",
          "name": "amount",
          "type": "uint256"
        },
        {
          "internalType": "uint256",
          "name": "externalChainNonce",
          "type": "uint256"
        }
      ],
      "name": "mint",
      "outputs": [],
      "stateMutability": "nonpayable",
      "type": "function"
    },
    {
      "inputs": [],
      "name": "token",
      "outputs": [
        {
          "internalType": "contract IToken",
          "name": "",
          "type": "address"
        }
      ],
      "stateMutability": "view",
      "type": "function"
    }
  ],
  "transactionHash": "0x5618da7faa367614d95646bb028d0ec91d168cbafb056a788636352553f71a59",
  "args": [
    "0xce2EBB1d12E8F20b1Ac2C3BE6Ee5e01d63579aA4"
  ],
  "numDeployments": 2,
  "solcInputHash": "799bfc22726bc35f8a92cf5f032d8e0f",
  "bytecode": "0x608060405234801561001057600080fd5b506040516109283803806109288339818101604052810190610032919061011e565b80336000806101000a81548173ffffffffffffffffffffffffffffffffffffffff021916908373ffffffffffffffffffffffffffffffffffffffff16021790555080600360006101000a81548173ffffffffffffffffffffffffffffffffffffffff021916908373ffffffffffffffffffffffffffffffffffffffff160217905550505061014b565b600080fd5b600073ffffffffffffffffffffffffffffffffffffffff82169050919050565b60006100eb826100c0565b9050919050565b6100fb816100e0565b811461010657600080fd5b50565b600081519050610118816100f2565b92915050565b600060208284031215610134576101336100bb565b5b600061014284828501610109565b91505092915050565b6107ce8061015a6000396000f3fe608060405234801561001057600080fd5b50600436106100415760003560e01c8063156e29f6146100465780639dc29fac14610062578063fc0c546a1461007e575b600080fd5b610060600480360381019061005b9190610462565b61009c565b005b61007c600480360381019061007791906104b5565b6102a3565b005b6100866103a3565b6040516100939190610554565b60405180910390f35b60008054906101000a900473ffffffffffffffffffffffffffffffffffffffff1673ffffffffffffffffffffffffffffffffffffffff163373ffffffffffffffffffffffffffffffffffffffff161461012a576040517f08c379a0000000000000000000000000000000000000000000000000000000008152600401610121906105cc565b60405180910390fd5b600015156002600083815260200190815260200160002060009054906101000a900460ff16151514610191576040517f08c379a000000000000000000000000000000000000000000000000000000000815260040161018890610638565b60405180910390fd5b60016002600083815260200190815260200160002060006101000a81548160ff021916908315150217905550600360009054906101000a900473ffffffffffffffffffffffffffffffffffffffff1673ffffffffffffffffffffffffffffffffffffffff166340c10f1984846040518363ffffffff1660e01b815260040161021a929190610676565b600060405180830381600087803b15801561023457600080fd5b505af1158015610248573d6000803e3d6000fd5b5050505060018081111561025f5761025e61069f565b5b7f27757542a5e1b9e8cef80f584e094d4eb63b9802f355c61b3640b71b618d5c8e33858585426040516102969594939291906106ce565b60405180910390a2505050565b600360009054906101000a900473ffffffffffffffffffffffffffffffffffffffff1673ffffffffffffffffffffffffffffffffffffffff16639dc29fac33836040518363ffffffff1660e01b8152600401610300929190610676565b600060405180830381600087803b15801561031a57600080fd5b505af115801561032e573d6000803e3d6000fd5b50505050600060018111156103465761034561069f565b5b7f27757542a5e1b9e8cef80f584e094d4eb63b9802f355c61b3640b71b618d5c8e3384846001544260405161037f9594939291906106ce565b60405180910390a26001600081548092919061039a90610750565b91905055505050565b600360009054906101000a900473ffffffffffffffffffffffffffffffffffffffff1681565b600080fd5b600073ffffffffffffffffffffffffffffffffffffffff82169050919050565b60006103f9826103ce565b9050919050565b610409816103ee565b811461041457600080fd5b50565b60008135905061042681610400565b92915050565b6000819050919050565b61043f8161042c565b811461044a57600080fd5b50565b60008135905061045c81610436565b92915050565b60008060006060848603121561047b5761047a6103c9565b5b600061048986828701610417565b935050602061049a8682870161044d565b92505060406104ab8682870161044d565b9150509250925092565b600080604083850312156104cc576104cb6103c9565b5b60006104da85828601610417565b92505060206104eb8582860161044d565b9150509250929050565b6000819050919050565b600061051a610515610510846103ce565b6104f5565b6103ce565b9050919050565b600061052c826104ff565b9050919050565b600061053e82610521565b9050919050565b61054e81610533565b82525050565b60006020820190506105696000830184610545565b92915050565b600082825260208201905092915050565b7f4e6f742041646d696e0000000000000000000000000000000000000000000000600082015250565b60006105b660098361056f565b91506105c182610580565b602082019050919050565b600060208201905081810360008301526105e5816105a9565b9050919050565b7f616c72656164792070726f636573736564212100000000000000000000000000600082015250565b600061062260138361056f565b915061062d826105ec565b602082019050919050565b6000602082019050818103600083015261065181610615565b9050919050565b610661816103ee565b82525050565b6106708161042c565b82525050565b600060408201905061068b6000830185610658565b6106986020830184610667565b9392505050565b7f4e487b7100000000000000000000000000000000000000000000000000000000600052602160045260246000fd5b600060a0820190506106e36000830188610658565b6106f06020830187610658565b6106fd6040830186610667565b61070a6060830185610667565b6107176080830184610667565b9695505050505050565b7f4e487b7100000000000000000000000000000000000000000000000000000000600052601160045260246000fd5b600061075b8261042c565b91507fffffffffffffffffffffffffffffffffffffffffffffffffffffffffffffffff820361078d5761078c610721565b5b60018201905091905056fea2646970667358221220bb95afa81447103198113c9df7e285d665496e5b407ed287634b08657208d42464736f6c63430008130033",
  "devdoc": {
    "kind": "dev",
    "methods": {},
    "version": 1
  },
  "userdoc": {
    "kind": "user",
    "methods": {},
    "version": 1
  },
  "storageLayout": {
    "storage": [
      {
        "astId": 717,
        "contract": "contracts/BridgeMatic.sol:BridgeMatic",
        "label": "admin",
        "offset": 0,
        "slot": "0",
        "type": "t_address"
      },
      {
        "astId": 719,
        "contract": "contracts/BridgeMatic.sol:BridgeMatic",
        "label": "nonce",
        "offset": 0,
        "slot": "1",
        "type": "t_uint256"
      },
      {
        "astId": 723,
        "contract": "contracts/BridgeMatic.sol:BridgeMatic",
        "label": "processedNonces",
        "offset": 0,
        "slot": "2",
        "type": "t_mapping(t_uint256,t_bool)"
      },
      {
        "astId": 726,
        "contract": "contracts/BridgeMatic.sol:BridgeMatic",
        "label": "token",
        "offset": 0,
        "slot": "3",
        "type": "t_contract(IToken)957"
      }
    ],
    "types": {
      "t_address": {
        "encoding": "inplace",
        "label": "address",
        "numberOfBytes": "20"
      },
      "t_bool": {
        "encoding": "inplace",
        "label": "bool",
        "numberOfBytes": "1"
      },
      "t_contract(IToken)957": {
        "encoding": "inplace",
        "label": "contract IToken",
        "numberOfBytes": "20"
      },
      "t_mapping(t_uint256,t_bool)": {
        "encoding": "mapping",
        "key": "t_uint256",
        "label": "mapping(uint256 => bool)",
        "numberOfBytes": "32",
        "value": "t_bool"
      },
      "t_uint256": {
        "encoding": "inplace",
        "label": "uint256",
        "numberOfBytes": "32"
      }
    }
  }
}